:100000000C9462000C947D040C94A4040C948A005B
:100010000C948A000C948A000C948A000C948A0038
:100020000C948A000C948A000C948A000C948A0028
:100030000C948A000C948A000C948A000C948A0018
:100040000C94CB040C948A000C948A000C948A00C3
:100050000C948A000C948A000C948A000C948A00F8
:100060000C941D030C948A0000000008000201009B
:100070000003040700000000000000000102040863
:100080001020408001020408102001020408102002
:10009000040404040404040402020202020203032E
:1000A00003030303000000002300260029000000D2
:1000B0000000250028002B0000000000240027007D
:1000C0002A00C40211241FBECFEFD8E0DEBFCDBF8F
:1000D00011E0A0E0B1E0EEE6FEE002C005900D9276
:1000E000A831B107D9F722E0A8E1B1E001C01D9223
:1000F000A831B207E1F710E0C4ECD0E004C02297C9
:10010000FE010E943107C23CD107C9F70E94F706E1
:100110000C9435070C9400008091220190912301EA
:1001200001969093230180932201089564E070E08A
:100130008CE491E00E94B80260E671E08CE491E00A
:100140000E94BA0269E971E08CE491E00E94BF026A
:1001500062E082E00E945E0642E050E06CE870E0FF
:1001600080E00C944B040F931F930E94150500919F
:100170001C0110911D0120911E0130911F01601B77
:10018000710B820B930B683E73408105910501F55D
:1001900080E00E946B048091220190912301909352
:1001A00021018093200110922301109222010E94CC
:1001B000150560931C0170931D0180931E0190939F
:1001C0001F0142E050E06CE870E080E00E944B04C8
:1001D00080912001909121011816190614F461E014
:1001E00001C060E08DE00E949706809100010E94AE
:1001F000CD069093190180931801019779F48091AD
:100200001A0190911B01019690931B0180931A0192
:100210006AEF70E080E090E00E9444058091420126
:10022000909143018130910529F4809144010E940D
:10023000CD0629C08230910541F46091460180913C
:1002400044011F910F910C94970683309105B1F4EE
:10025000809144010E94B905909327018093260163
:100260009C0197FF02C021503F4F3093290160E06D
:1002700071E00E94070780932A011FC08730910513
:1002800029F48091200180933D0117C084309105AD
:1002900051F46091460170914701809144011F9192
:1002A0000F910C94D605059741F460914601809119
:1002B00044011F910F910C945E061F910F910895B8
:1002C0000F931F93CF93DF9301E010E08CE491E054
:1002D0000E94D501892B41F18CE491E00E94D50167
:1002E000049761F410923F0110923E011092410177
:1002F000109240011093250100932401C091400108
:10030000D0914101CE01019690934101809340012B
:100310008CE491E00E94DD01FE01EE0FFF1FEE5B19
:10032000FE4F91838083D2CFDF91CF911F910F91A8
:1003300008958091420190914301019731F46091B9
:100340003D018CE491E00E945C0280914201909119
:1003500043018330910511F0C89741F443E050E028
:1003600068E271E08CE491E00E942F0280914201EA
:1003700090914301069761F4E0914C01F0914D0199
:100380000190F081E02D60911A018CE491E00995D3
:100390008091420190914301079731F460913D01B2
:1003A0008CE491E00C945C02089580917F0190E0D0
:1003B00020918001821B91090895209180018091F4
:1003C0007F01281750F4E22FF0E0EF57FE4F8081B5
:1003D00090E02F5F2093800108958FEF9FEF0895A5
:1003E000E091800180917F01E81730F4F0E0EF5751
:1003F000FE4F808190E008958FEF9FEF089508955C
:10040000E0915801F09159013097E1F0309180016D
:1004100020917F013217B0F040E0242F30E0261702
:10042000370754F4DC01A20FB31F5C91D901AF5719
:10043000BE4F5C934F5FF1CF1092800160937F01BC
:10044000CB0109940895E0915A01F0915B01309736
:1004500029F010925E0110925D0109940895CF92E7
:10046000DF92EF92FF920F931F93CF93DF937C0164
:10047000CB018A0120915C01222389F0EB016B0101
:10048000C40ED51ECC15DD0569F06991D701ED913B
:10049000FC910190F081E02DC7010995F3CF642F05
:1004A0000E94EA02C801DF91CF911F910F91FF9046
:1004B000EF90DF90CF900895CF93DF931F92CDB749
:1004C000DEB7698320915C012223D1F020915D0188
:1004D000203240F021E030E0FC013383228380E0D1
:1004E00090E015C080915E01E82FF0E0E15AFE4FE8
:1004F000998190838F5F80935E0180935D0105C039
:1005000061E0CE0101960E94EA0281E090E00F9046
:10051000DF91CF910895FC011382128248EE53E0DF
:1005200060E070E044835583668377838BE091E0DD
:100530009183808308951092800110927F01109220
:100540005E0110925D010C94C802CF93DF93EC0121
:10055000862F0E94E60283E292E00E94080380E078
:1005600092E00E940303CE01DF91CF910C949B0295
:100570000C94A502709359016093580108957093EB
:100580005B0160935A0108958CE491E00C948B0216
:1005900010920E0281E080930C0210920B0261E037
:1005A00082E10E94970661E083E10E949706E9EBF1
:1005B000F0E080818E7F808380818D7F808388E4DE
:1005C0008093B80085E48093BC000895880F8093E1
:1005D000BA000895613298F420910E02243089F413
:1005E0006093C301FC0185EC91E0DC012A2F281BFC
:1005F000261718F421912D93F9CF80E0089581E01A
:10060000089582E008959093080280930702089568
:1006100090930A0280930902089585ED8093BC00AF
:100620008091BC0084FDFCCF10920E02089585ECF1
:100630008093BC0010920E0208951F920F920FB685
:100640000F9211242F933F934F935F936F937F9358
:100650008F939F93AF93BF93EF93FF938091B900D4
:10066000887F803609F49EC078F5883209F45DC031
:1006700090F4803109F456C038F4882309F4F5C0A9
:10068000883009F44FC0F5C0883109F44EC080327B
:1006900009F45FC0EEC0803409F46AC058F48033B6
:1006A00009F457C0883309F0E4C08093A1010E9487
:1006B0001703DFC0803509F44FC0883509F45DC0E9
:1006C000883409F0D6C0D3C0883909F4C4C0A8F46E
:1006D000883709F467C038F4883609F463C0803776
:1006E00009F460C0C6C0883809F4B5C0803909F47F
:1006F0005FC0803809F0BDC05BC0803B09F483C097
:1007000038F4803A09F466C0883A09F47CC0B1C074
:10071000803C09F4A4C0883C09F4A1C0883B09F4DA
:1007200087C0A7C080910D0210C09091E601809112
:10073000E501981770F5E091E60181E08E0F809356
:10074000E601F0E0E951FE4F80818093BB0085EC2B
:1007500083C08093A1018BC0E091E60181E08E0F00
:100760008093E6018091BB00F0E0E951FE4F808369
:100770009091E6018091E5016BC0E091E60181E096
:100780008E0F8093E6018091BB00F0E0E951FE4FAF
:10079000808380910C0281116AC081E080930B02FA
:1007A00084EA5EC083E080930E021092A201CFCF54
:1007B0008091A201803208F04EC0E091A20181E058
:1007C0008E0F8093A2018091BB00F0E0ED55FE4FAB
:1007D0008083BDCF0E9417038091A201803230F444
:1007E000E091A201F0E0ED55FE4F10826091A20170
:1007F00070E0E0910702F091080283EA91E0099528
:100800001092A20136C084E080930E021092C401BF
:100810001092C301E0910902F0910A0209958091BA
:10082000C301811105C081E08093C3011092C5010D
:10083000E091C40181E08E0F8093C401F0E0EB539E
:10084000FE4F80818093BB009091C4018091C301D1
:10085000981708F47CCF85E88093BC000AC085EC2B
:100860008093BC0010920E0204C01092A1010E945D
:100870000D03FF91EF91BF91AF919F918F917F9168
:100880006F915F914F913F912F910F900FBE0F90FD
:100890001F90189508958230E8F4E82FF0E0EE0FED
:1008A000FF1FEE5FFE4F71836083813041F08091C6
:1008B00069008C7F842B80936900E89A0895809169
:1008C0006900440F551F440F551F837F842B80936D
:1008D0006900E99A0895823078F4813011F0E8983F
:1008E00001C0E998E82FF0E0EE0FFF1FEE5FFE4F2A
:1008F0008AE494E09183808308951F920F920FB64B
:100900000F9211242F933F934F935F936F937F9395
:100910008F939F93AF93BF93EF93FF93E091020167
:10092000F09103010995FF91EF91BF91AF919F91D4
:100930008F917F916F915F914F913F912F910F9088
:100940000FBE0F901F9018951F920F920FB60F9227
:1009500011242F933F934F935F936F937F938F93C4
:100960009F93AF93BF93EF93FF93E0910401F091B6
:1009700005010995FF91EF91BF91AF919F918F91E3
:100980007F916F915F914F913F912F910F900FBE8B
:100990000F901F9018951F920F920FB60F9211246F
:1009A0002F933F938F939F93AF93BF9380911002A8
:1009B00090911102A0911202B091130230910F0296
:1009C00023E0230F2D3720F40196A11DB11D05C092
:1009D00026E8230F0296A11DB11D20930F028093DC
:1009E000100290931102A0931202B093130280910F
:1009F000140290911502A0911602B091170201966F
:100A0000A11DB11D8093140290931502A0931602AC
:100A1000B0931702BF91AF919F918F913F912F910A
:100A20000F900FBE0F901F9018952FB7F8946091FC
:100A300010027091110280911202909113022FBF47
:100A400008953FB7F8948091140290911502A091F7
:100A50001602B091170226B5A89B05C02F3F19F0CA
:100A60000196A11DB11D3FBF6627782F892F9A2FB0
:100A7000620F711D811D911D42E0660F771F881F57
:100A8000991F4A95D1F708958F929F92AF92BF9286
:100A9000CF92DF92EF92FF926B017C010E942105C1
:100AA0004B015C01C114D104E104F104F1F00E9496
:100AB00006070E942105681979098A099B09683E81
:100AC00073408105910570F321E0C21AD108E10855
:100AD000F10888EE880E83E0981EA11CB11CC11499
:100AE000D104E104F10429F7DDCFFF90EF90DF900E
:100AF000CF90BF90AF909F908F900895789484B5D9
:100B0000826084BD84B5816084BD85B5826085BD09
:100B100085B5816085BDEEE6F0E0808181608083EF
:100B2000E1E8F0E0108280818260808380818160D2
:100B30008083E0E8F0E0808181608083E1EBF0E099
:100B4000808184608083E0EBF0E08081816080833D
:100B5000EAE7F0E080818460808380818260808326
:100B60008081816080838081806880831092C10051
:100B700008958E3008F08E5087702091060190E421
:100B8000299F90011124822B80937C0080917A0010
:100B9000806480937A0080917A0086FDFCCF8091FA
:100BA00078002091790090E0922B08951F93CF93C5
:100BB000DF93182FEB0161E00E945E06209711F48D
:100BC00060E004C0CF3FD10539F461E0812FDF91AF
:100BD000CF911F910C949706E12FF0E0E859FF4F59
:100BE000E491E330F9F048F4E130B9F0E230A1F5F6
:100BF00084B5806284BDC8BD34C0E730E9F0E83018
:100C000019F1E43049F58091800080628093800082
:100C1000D0938B00C0938A0024C084B5806884BDC3
:100C2000C7BD1FC080918000806880938000D093F2
:100C30008900C093880015C08091B00080688093BF
:100C4000B000C093B3000DC08091B000806280936B
:100C5000B000C093B40005C0C038D1050CF0B5CFCA
:100C6000AFCFDF91CF911F910895833081F028F4A9
:100C7000813099F08230A1F008958730A9F0883052
:100C8000B9F08430D1F4809180008F7D03C08091D1
:100C900080008F7780938000089584B58F7702C09D
:100CA00084B58F7D84BD08958091B0008F7703C097
:100CB0008091B0008F7D8093B0000895CF93DF9333
:100CC00090E0FC01E458FF4F2491FC01E057FF4FF6
:100CD0008491882349F190E0880F991FFC01E85422
:100CE000FF4FA591B49182559F4FFC01C591D491BE
:100CF0009FB7611108C0F8948C91209582238C9342
:100D0000888182230AC0623051F4F8948C91322F8A
:100D1000309583238C938881822B888304C0F89438
:100D20008C91822B8C939FBFDF91CF9108950F936D
:100D30001F93CF93DF931F92CDB7DEB7282F30E0FC
:100D4000F901E859FF4F8491F901E458FF4F1491DC
:100D5000F901E057FF4F04910023C9F0882321F0E7
:100D600069830E9435066981E02FF0E0EE0FFF1FD6
:100D7000E255FF4FA591B4919FB7F8948C91611102
:100D800003C01095812301C0812B8C939FBF0F90CE
:100D9000DF91CF911F910F910895CF93DF93282F6B
:100DA00030E0F901E859FF4F8491F901E458FF4F11
:100DB000D491F901E057FF4FC491CC2391F08111F8
:100DC0000E943506EC2FF0E0EE0FFF1FEC55FF4FB1
:100DD000A591B4912C912D2381E090E021F480E045
:100DE00002C080E090E0DF91CF91089508950E94C5
:100DF0007E050E94F6060E949600C0E0D0E00E94A8
:100E0000B3002097E1F30E940000F9CF089597FB0B
:100E1000072E16F4009407D077FD09D00E941B0717
:100E200007FC05D03EF4909581959F4F08957095ED
:100E300061957F4F0895AA1BBB1B51E107C0AA1FF4
:100E4000BB1FA617B70710F0A61BB70B881F991F6B
:100E50005A95A9F780959095BC01CD010895EE0FA4
:0E0E6000FF1F0590F491E02D0994F894FFCF48
:100E6E0003004A044A0401000000005C022F02D570
:080E7E0001DD01F001FF01009C
:00000001FF
